{
  "_format": "hh-sol-artifact-1",
  "contractName": "NFT",
  "sourceName": "contracts/ERC721.sol",
  "abi": [
    {
      "inputs": [],
      "stateMutability": "nonpayable",
      "type": "constructor"
    },
    {
      "anonymous": false,
      "inputs": [
        {
          "indexed": true,
          "internalType": "address",
          "name": "owner",
          "type": "address"
        },
        {
          "indexed": true,
          "internalType": "address",
          "name": "approved",
          "type": "address"
        },
        {
          "indexed": true,
          "internalType": "uint256",
          "name": "tokenId",
          "type": "uint256"
        }
      ],
      "name": "Approval",
      "type": "event"
    },
    {
      "anonymous": false,
      "inputs": [
        {
          "indexed": true,
          "internalType": "address",
          "name": "owner",
          "type": "address"
        },
        {
          "indexed": true,
          "internalType": "address",
          "name": "operator",
          "type": "address"
        },
        {
          "indexed": false,
          "internalType": "bool",
          "name": "approved",
          "type": "bool"
        }
      ],
      "name": "ApprovalForAll",
      "type": "event"
    },
    {
      "anonymous": false,
      "inputs": [
        {
          "indexed": true,
          "internalType": "address",
          "name": "previousOwner",
          "type": "address"
        },
        {
          "indexed": true,
          "internalType": "address",
          "name": "newOwner",
          "type": "address"
        }
      ],
      "name": "OwnershipTransferred",
      "type": "event"
    },
    {
      "anonymous": false,
      "inputs": [
        {
          "indexed": true,
          "internalType": "address",
          "name": "from",
          "type": "address"
        },
        {
          "indexed": true,
          "internalType": "address",
          "name": "to",
          "type": "address"
        },
        {
          "indexed": true,
          "internalType": "uint256",
          "name": "tokenId",
          "type": "uint256"
        }
      ],
      "name": "Transfer",
      "type": "event"
    },
    {
      "inputs": [
        {
          "internalType": "address",
          "name": "to",
          "type": "address"
        },
        {
          "internalType": "uint256",
          "name": "tokenId",
          "type": "uint256"
        }
      ],
      "name": "approve",
      "outputs": [],
      "stateMutability": "nonpayable",
      "type": "function"
    },
    {
      "inputs": [
        {
          "internalType": "address",
          "name": "owner",
          "type": "address"
        }
      ],
      "name": "balanceOf",
      "outputs": [
        {
          "internalType": "uint256",
          "name": "",
          "type": "uint256"
        }
      ],
      "stateMutability": "view",
      "type": "function"
    },
    {
      "inputs": [
        {
          "internalType": "uint256",
          "name": "tokenId",
          "type": "uint256"
        }
      ],
      "name": "getApproved",
      "outputs": [
        {
          "internalType": "address",
          "name": "",
          "type": "address"
        }
      ],
      "stateMutability": "view",
      "type": "function"
    },
    {
      "inputs": [
        {
          "internalType": "address",
          "name": "owner",
          "type": "address"
        },
        {
          "internalType": "address",
          "name": "operator",
          "type": "address"
        }
      ],
      "name": "isApprovedForAll",
      "outputs": [
        {
          "internalType": "bool",
          "name": "",
          "type": "bool"
        }
      ],
      "stateMutability": "view",
      "type": "function"
    },
    {
      "inputs": [],
      "name": "name",
      "outputs": [
        {
          "internalType": "string",
          "name": "",
          "type": "string"
        }
      ],
      "stateMutability": "view",
      "type": "function"
    },
    {
      "inputs": [],
      "name": "owner",
      "outputs": [
        {
          "internalType": "address",
          "name": "",
          "type": "address"
        }
      ],
      "stateMutability": "view",
      "type": "function"
    },
    {
      "inputs": [
        {
          "internalType": "uint256",
          "name": "tokenId",
          "type": "uint256"
        }
      ],
      "name": "ownerOf",
      "outputs": [
        {
          "internalType": "address",
          "name": "",
          "type": "address"
        }
      ],
      "stateMutability": "view",
      "type": "function"
    },
    {
      "inputs": [],
      "name": "renounceOwnership",
      "outputs": [],
      "stateMutability": "nonpayable",
      "type": "function"
    },
    {
      "inputs": [
        {
          "internalType": "address",
          "name": "to",
          "type": "address"
        },
        {
          "internalType": "uint256",
          "name": "tokenId",
          "type": "uint256"
        },
        {
          "internalType": "string",
          "name": "uri",
          "type": "string"
        }
      ],
      "name": "safeMint",
      "outputs": [],
      "stateMutability": "nonpayable",
      "type": "function"
    },
    {
      "inputs": [
        {
          "internalType": "address",
          "name": "from",
          "type": "address"
        },
        {
          "internalType": "address",
          "name": "to",
          "type": "address"
        },
        {
          "internalType": "uint256",
          "name": "tokenId",
          "type": "uint256"
        }
      ],
      "name": "safeTransferFrom",
      "outputs": [],
      "stateMutability": "nonpayable",
      "type": "function"
    },
    {
      "inputs": [
        {
          "internalType": "address",
          "name": "from",
          "type": "address"
        },
        {
          "internalType": "address",
          "name": "to",
          "type": "address"
        },
        {
          "internalType": "uint256",
          "name": "tokenId",
          "type": "uint256"
        },
        {
          "internalType": "bytes",
          "name": "data",
          "type": "bytes"
        }
      ],
      "name": "safeTransferFrom",
      "outputs": [],
      "stateMutability": "nonpayable",
      "type": "function"
    },
    {
      "inputs": [
        {
          "internalType": "address",
          "name": "operator",
          "type": "address"
        },
        {
          "internalType": "bool",
          "name": "approved",
          "type": "bool"
        }
      ],
      "name": "setApprovalForAll",
      "outputs": [],
      "stateMutability": "nonpayable",
      "type": "function"
    },
    {
      "inputs": [
        {
          "internalType": "bytes4",
          "name": "interfaceId",
          "type": "bytes4"
        }
      ],
      "name": "supportsInterface",
      "outputs": [
        {
          "internalType": "bool",
          "name": "",
          "type": "bool"
        }
      ],
      "stateMutability": "view",
      "type": "function"
    },
    {
      "inputs": [],
      "name": "symbol",
      "outputs": [
        {
          "internalType": "string",
          "name": "",
          "type": "string"
        }
      ],
      "stateMutability": "view",
      "type": "function"
    },
    {
      "inputs": [
        {
          "internalType": "uint256",
          "name": "tokenId",
          "type": "uint256"
        }
      ],
      "name": "tokenURI",
      "outputs": [
        {
          "internalType": "string",
          "name": "",
          "type": "string"
        }
      ],
      "stateMutability": "view",
      "type": "function"
    },
    {
      "inputs": [
        {
          "internalType": "address",
          "name": "from",
          "type": "address"
        },
        {
          "internalType": "address",
          "name": "to",
          "type": "address"
        },
        {
          "internalType": "uint256",
          "name": "tokenId",
          "type": "uint256"
        }
      ],
      "name": "transferFrom",
      "outputs": [],
      "stateMutability": "nonpayable",
      "type": "function"
    },
    {
      "inputs": [
        {
          "internalType": "address",
          "name": "newOwner",
          "type": "address"
        }
      ],
      "name": "transferOwnership",
      "outputs": [],
      "stateMutability": "nonpayable",
      "type": "function"
    }
  ],
  "bytecode": "0x60806040523480156200001157600080fd5b506040518060400160405280600381526020017f4e465400000000000000000000000000000000000000000000000000000000008152506040518060400160405280600581526020017f4752503135000000000000000000000000000000000000000000000000000000815250816000908051906020019062000096929190620001a6565b508060019080519060200190620000af929190620001a6565b505050620000d2620000c6620000d860201b60201c565b620000e060201b60201c565b620002bb565b600033905090565b6000600760009054906101000a900473ffffffffffffffffffffffffffffffffffffffff16905081600760006101000a81548173ffffffffffffffffffffffffffffffffffffffff021916908373ffffffffffffffffffffffffffffffffffffffff1602179055508173ffffffffffffffffffffffffffffffffffffffff168173ffffffffffffffffffffffffffffffffffffffff167f8be0079c531659141344cd1fd0a4f28419497f9722a3daafe3b4186f6b6457e060405160405180910390a35050565b828054620001b49062000285565b90600052602060002090601f016020900481019282620001d8576000855562000224565b82601f10620001f357805160ff191683800117855562000224565b8280016001018555821562000224579182015b828111156200022357825182559160200191906001019062000206565b5b50905062000233919062000237565b5090565b5b808211156200025257600081600090555060010162000238565b5090565b7f4e487b7100000000000000000000000000000000000000000000000000000000600052602260045260246000fd5b600060028204905060018216806200029e57607f821691505b60208210811415620002b557620002b462000256565b5b50919050565b612c6080620002cb6000396000f3fe608060405234801561001057600080fd5b506004361061010b5760003560e01c8063715018a6116100a2578063b88d4fde11610071578063b88d4fde146102a4578063c87b56dd146102c0578063cd279c7c146102f0578063e985e9c51461030c578063f2fde38b1461033c5761010b565b8063715018a6146102425780638da5cb5b1461024c57806395d89b411461026a578063a22cb465146102885761010b565b806323b872dd116100de57806323b872dd146101aa57806342842e0e146101c65780636352211e146101e257806370a08231146102125761010b565b806301ffc9a71461011057806306fdde0314610140578063081812fc1461015e578063095ea7b31461018e575b600080fd5b61012a60048036038101906101259190611b1f565b610358565b6040516101379190611b67565b60405180910390f35b61014861043a565b6040516101559190611c1b565b60405180910390f35b61017860048036038101906101739190611c73565b6104cc565b6040516101859190611ce1565b60405180910390f35b6101a860048036038101906101a39190611d28565b610512565b005b6101c460048036038101906101bf9190611d68565b61062a565b005b6101e060048036038101906101db9190611d68565b61068a565b005b6101fc60048036038101906101f79190611c73565b6106aa565b6040516102099190611ce1565b60405180910390f35b61022c60048036038101906102279190611dbb565b61075c565b6040516102399190611df7565b60405180910390f35b61024a610814565b005b610254610828565b6040516102619190611ce1565b60405180910390f35b610272610852565b60405161027f9190611c1b565b60405180910390f35b6102a2600480360381019061029d9190611e3e565b6108e4565b005b6102be60048036038101906102b99190611fb3565b6108fa565b005b6102da60048036038101906102d59190611c73565b61095c565b6040516102e79190611c1b565b60405180910390f35b61030a600480360381019061030591906120d7565b61096e565b005b61032660048036038101906103219190612146565b61098f565b6040516103339190611b67565b60405180910390f35b61035660048036038101906103519190611dbb565b610a23565b005b60007f80ac58cd000000000000000000000000000000000000000000000000000000007bffffffffffffffffffffffffffffffffffffffffffffffffffffffff1916827bffffffffffffffffffffffffffffffffffffffffffffffffffffffff1916148061042357507f5b5e139f000000000000000000000000000000000000000000000000000000007bffffffffffffffffffffffffffffffffffffffffffffffffffffffff1916827bffffffffffffffffffffffffffffffffffffffffffffffffffffffff1916145b80610433575061043282610aa7565b5b9050919050565b606060008054610449906121b5565b80601f0160208091040260200160405190810160405280929190818152602001828054610475906121b5565b80156104c25780601f10610497576101008083540402835291602001916104c2565b820191906000526020600020905b8154815290600101906020018083116104a557829003601f168201915b5050505050905090565b60006104d782610b11565b6004600083815260200190815260200160002060009054906101000a900473ffffffffffffffffffffffffffffffffffffffff169050919050565b600061051d826106aa565b90508073ffffffffffffffffffffffffffffffffffffffff168373ffffffffffffffffffffffffffffffffffffffff16141561058e576040517f08c379a000000000000000000000000000000000000000000000000000000000815260040161058590612259565b60405180910390fd5b8073ffffffffffffffffffffffffffffffffffffffff166105ad610b5c565b73ffffffffffffffffffffffffffffffffffffffff1614806105dc57506105db816105d6610b5c565b61098f565b5b61061b576040517f08c379a0000000000000000000000000000000000000000000000000000000008152600401610612906122eb565b60405180910390fd5b6106258383610b64565b505050565b61063b610635610b5c565b82610c1d565b61067a576040517f08c379a00000000000000000000000000000000000000000000000000000000081526004016106719061237d565b60405180910390fd5b610685838383610cb2565b505050565b6106a5838383604051806020016040528060008152506108fa565b505050565b6000806002600084815260200190815260200160002060009054906101000a900473ffffffffffffffffffffffffffffffffffffffff169050600073ffffffffffffffffffffffffffffffffffffffff168173ffffffffffffffffffffffffffffffffffffffff161415610753576040517f08c379a000000000000000000000000000000000000000000000000000000000815260040161074a906123e9565b60405180910390fd5b80915050919050565b60008073ffffffffffffffffffffffffffffffffffffffff168273ffffffffffffffffffffffffffffffffffffffff1614156107cd576040517f08c379a00000000000000000000000000000000000000000000000000000000081526004016107c49061247b565b60405180910390fd5b600360008373ffffffffffffffffffffffffffffffffffffffff1673ffffffffffffffffffffffffffffffffffffffff168152602001908152602001600020549050919050565b61081c610f19565b6108266000610f97565b565b6000600760009054906101000a900473ffffffffffffffffffffffffffffffffffffffff16905090565b606060018054610861906121b5565b80601f016020809104026020016040519081016040528092919081815260200182805461088d906121b5565b80156108da5780601f106108af576101008083540402835291602001916108da565b820191906000526020600020905b8154815290600101906020018083116108bd57829003601f168201915b5050505050905090565b6108f66108ef610b5c565b838361105d565b5050565b61090b610905610b5c565b83610c1d565b61094a576040517f08c379a00000000000000000000000000000000000000000000000000000000081526004016109419061237d565b60405180910390fd5b610956848484846111ca565b50505050565b606061096782611226565b9050919050565b610976610f19565b6109808383611339565b61098a8282611357565b505050565b6000600560008473ffffffffffffffffffffffffffffffffffffffff1673ffffffffffffffffffffffffffffffffffffffff16815260200190815260200160002060008373ffffffffffffffffffffffffffffffffffffffff1673ffffffffffffffffffffffffffffffffffffffff16815260200190815260200160002060009054906101000a900460ff16905092915050565b610a2b610f19565b600073ffffffffffffffffffffffffffffffffffffffff168173ffffffffffffffffffffffffffffffffffffffff161415610a9b576040517f08c379a0000000000000000000000000000000000000000000000000000000008152600401610a929061250d565b60405180910390fd5b610aa481610f97565b50565b60007f01ffc9a7000000000000000000000000000000000000000000000000000000007bffffffffffffffffffffffffffffffffffffffffffffffffffffffff1916827bffffffffffffffffffffffffffffffffffffffffffffffffffffffff1916149050919050565b610b1a816113cb565b610b59576040517f08c379a0000000000000000000000000000000000000000000000000000000008152600401610b50906123e9565b60405180910390fd5b50565b600033905090565b816004600083815260200190815260200160002060006101000a81548173ffffffffffffffffffffffffffffffffffffffff021916908373ffffffffffffffffffffffffffffffffffffffff160217905550808273ffffffffffffffffffffffffffffffffffffffff16610bd7836106aa565b73ffffffffffffffffffffffffffffffffffffffff167f8c5be1e5ebec7d5bd14f71427d1e84f3dd0314c0f7b2291e5b200ac8c7c3b92560405160405180910390a45050565b600080610c29836106aa565b90508073ffffffffffffffffffffffffffffffffffffffff168473ffffffffffffffffffffffffffffffffffffffff161480610c6b5750610c6a818561098f565b5b80610ca957508373ffffffffffffffffffffffffffffffffffffffff16610c91846104cc565b73ffffffffffffffffffffffffffffffffffffffff16145b91505092915050565b8273ffffffffffffffffffffffffffffffffffffffff16610cd2826106aa565b73ffffffffffffffffffffffffffffffffffffffff1614610d28576040517f08c379a0000000000000000000000000000000000000000000000000000000008152600401610d1f9061259f565b60405180910390fd5b600073ffffffffffffffffffffffffffffffffffffffff168273ffffffffffffffffffffffffffffffffffffffff161415610d98576040517f08c379a0000000000000000000000000000000000000000000000000000000008152600401610d8f90612631565b60405180910390fd5b610da3838383611437565b610dae600082610b64565b6001600360008573ffffffffffffffffffffffffffffffffffffffff1673ffffffffffffffffffffffffffffffffffffffff1681526020019081526020016000206000828254610dfe9190612680565b925050819055506001600360008473ffffffffffffffffffffffffffffffffffffffff1673ffffffffffffffffffffffffffffffffffffffff1681526020019081526020016000206000828254610e5591906126b4565b92505081905550816002600083815260200190815260200160002060006101000a81548173ffffffffffffffffffffffffffffffffffffffff021916908373ffffffffffffffffffffffffffffffffffffffff160217905550808273ffffffffffffffffffffffffffffffffffffffff168473ffffffffffffffffffffffffffffffffffffffff167fddf252ad1be2c89b69c2b068fc378daa952ba7f163c4a11628f55a4df523b3ef60405160405180910390a4610f1483838361143c565b505050565b610f21610b5c565b73ffffffffffffffffffffffffffffffffffffffff16610f3f610828565b73ffffffffffffffffffffffffffffffffffffffff1614610f95576040517f08c379a0000000000000000000000000000000000000000000000000000000008152600401610f8c90612756565b60405180910390fd5b565b6000600760009054906101000a900473ffffffffffffffffffffffffffffffffffffffff16905081600760006101000a81548173ffffffffffffffffffffffffffffffffffffffff021916908373ffffffffffffffffffffffffffffffffffffffff1602179055508173ffffffffffffffffffffffffffffffffffffffff168173ffffffffffffffffffffffffffffffffffffffff167f8be0079c531659141344cd1fd0a4f28419497f9722a3daafe3b4186f6b6457e060405160405180910390a35050565b8173ffffffffffffffffffffffffffffffffffffffff168373ffffffffffffffffffffffffffffffffffffffff1614156110cc576040517f08c379a00000000000000000000000000000000000000000000000000000000081526004016110c3906127c2565b60405180910390fd5b80600560008573ffffffffffffffffffffffffffffffffffffffff1673ffffffffffffffffffffffffffffffffffffffff16815260200190815260200160002060008473ffffffffffffffffffffffffffffffffffffffff1673ffffffffffffffffffffffffffffffffffffffff16815260200190815260200160002060006101000a81548160ff0219169083151502179055508173ffffffffffffffffffffffffffffffffffffffff168373ffffffffffffffffffffffffffffffffffffffff167f17307eab39ab6107e8899845ad3d59bd9653f200f220920489ca2b5937696c31836040516111bd9190611b67565b60405180910390a3505050565b6111d5848484610cb2565b6111e184848484611441565b611220576040517f08c379a000000000000000000000000000000000000000000000000000000000815260040161121790612854565b60405180910390fd5b50505050565b606061123182610b11565b6000600660008481526020019081526020016000208054611251906121b5565b80601f016020809104026020016040519081016040528092919081815260200182805461127d906121b5565b80156112ca5780601f1061129f576101008083540402835291602001916112ca565b820191906000526020600020905b8154815290600101906020018083116112ad57829003601f168201915b5050505050905060006112db6115d8565b90506000815114156112f1578192505050611334565b60008251111561132657808260405160200161130e9291906128b0565b60405160208183030381529060405292505050611334565b61132f846115ef565b925050505b919050565b611353828260405180602001604052806000815250611657565b5050565b611360826113cb565b61139f576040517f08c379a000000000000000000000000000000000000000000000000000000000815260040161139690612946565b60405180910390fd5b806006600084815260200190815260200160002090805190602001906113c6929190611a10565b505050565b60008073ffffffffffffffffffffffffffffffffffffffff166002600084815260200190815260200160002060009054906101000a900473ffffffffffffffffffffffffffffffffffffffff1673ffffffffffffffffffffffffffffffffffffffff1614159050919050565b505050565b505050565b60006114628473ffffffffffffffffffffffffffffffffffffffff166116b2565b156115cb578373ffffffffffffffffffffffffffffffffffffffff1663150b7a0261148b610b5c565b8786866040518563ffffffff1660e01b81526004016114ad94939291906129bb565b602060405180830381600087803b1580156114c757600080fd5b505af19250505080156114f857506040513d601f19601f820116820180604052508101906114f59190612a1c565b60015b61157b573d8060008114611528576040519150601f19603f3d011682016040523d82523d6000602084013e61152d565b606091505b50600081511415611573576040517f08c379a000000000000000000000000000000000000000000000000000000000815260040161156a90612854565b60405180910390fd5b805181602001fd5b63150b7a0260e01b7bffffffffffffffffffffffffffffffffffffffffffffffffffffffff1916817bffffffffffffffffffffffffffffffffffffffffffffffffffffffff1916149150506115d0565b600190505b949350505050565b606060405180602001604052806000815250905090565b60606115fa82610b11565b60006116046115d8565b90506000815111611624576040518060200160405280600081525061164f565b8061162e846116d5565b60405160200161163f9291906128b0565b6040516020818303038152906040525b915050919050565b6116618383611836565b61166e6000848484611441565b6116ad576040517f08c379a00000000000000000000000000000000000000000000000000000000081526004016116a490612854565b60405180910390fd5b505050565b6000808273ffffffffffffffffffffffffffffffffffffffff163b119050919050565b6060600082141561171d576040518060400160405280600181526020017f30000000000000000000000000000000000000000000000000000000000000008152509050611831565b600082905060005b6000821461174f57808061173890612a49565b915050600a826117489190612ac1565b9150611725565b60008167ffffffffffffffff81111561176b5761176a611e88565b5b6040519080825280601f01601f19166020018201604052801561179d5781602001600182028036833780820191505090505b5090505b6000851461182a576001826117b69190612680565b9150600a856117c59190612af2565b60306117d191906126b4565b60f81b8183815181106117e7576117e6612b23565b5b60200101907effffffffffffffffffffffffffffffffffffffffffffffffffffffffffffff1916908160001a905350600a856118239190612ac1565b94506117a1565b8093505050505b919050565b600073ffffffffffffffffffffffffffffffffffffffff168273ffffffffffffffffffffffffffffffffffffffff1614156118a6576040517f08c379a000000000000000000000000000000000000000000000000000000000815260040161189d90612b9e565b60405180910390fd5b6118af816113cb565b156118ef576040517f08c379a00000000000000000000000000000000000000000000000000000000081526004016118e690612c0a565b60405180910390fd5b6118fb60008383611437565b6001600360008473ffffffffffffffffffffffffffffffffffffffff1673ffffffffffffffffffffffffffffffffffffffff168152602001908152602001600020600082825461194b91906126b4565b92505081905550816002600083815260200190815260200160002060006101000a81548173ffffffffffffffffffffffffffffffffffffffff021916908373ffffffffffffffffffffffffffffffffffffffff160217905550808273ffffffffffffffffffffffffffffffffffffffff16600073ffffffffffffffffffffffffffffffffffffffff167fddf252ad1be2c89b69c2b068fc378daa952ba7f163c4a11628f55a4df523b3ef60405160405180910390a4611a0c6000838361143c565b5050565b828054611a1c906121b5565b90600052602060002090601f016020900481019282611a3e5760008555611a85565b82601f10611a5757805160ff1916838001178555611a85565b82800160010185558215611a85579182015b82811115611a84578251825591602001919060010190611a69565b5b509050611a929190611a96565b5090565b5b80821115611aaf576000816000905550600101611a97565b5090565b6000604051905090565b600080fd5b600080fd5b60007fffffffff0000000000000000000000000000000000000000000000000000000082169050919050565b611afc81611ac7565b8114611b0757600080fd5b50565b600081359050611b1981611af3565b92915050565b600060208284031215611b3557611b34611abd565b5b6000611b4384828501611b0a565b91505092915050565b60008115159050919050565b611b6181611b4c565b82525050565b6000602082019050611b7c6000830184611b58565b92915050565b600081519050919050565b600082825260208201905092915050565b60005b83811015611bbc578082015181840152602081019050611ba1565b83811115611bcb576000848401525b50505050565b6000601f19601f8301169050919050565b6000611bed82611b82565b611bf78185611b8d565b9350611c07818560208601611b9e565b611c1081611bd1565b840191505092915050565b60006020820190508181036000830152611c358184611be2565b905092915050565b6000819050919050565b611c5081611c3d565b8114611c5b57600080fd5b50565b600081359050611c6d81611c47565b92915050565b600060208284031215611c8957611c88611abd565b5b6000611c9784828501611c5e565b91505092915050565b600073ffffffffffffffffffffffffffffffffffffffff82169050919050565b6000611ccb82611ca0565b9050919050565b611cdb81611cc0565b82525050565b6000602082019050611cf66000830184611cd2565b92915050565b611d0581611cc0565b8114611d1057600080fd5b50565b600081359050611d2281611cfc565b92915050565b60008060408385031215611d3f57611d3e611abd565b5b6000611d4d85828601611d13565b9250506020611d5e85828601611c5e565b9150509250929050565b600080600060608486031215611d8157611d80611abd565b5b6000611d8f86828701611d13565b9350506020611da086828701611d13565b9250506040611db186828701611c5e565b9150509250925092565b600060208284031215611dd157611dd0611abd565b5b6000611ddf84828501611d13565b91505092915050565b611df181611c3d565b82525050565b6000602082019050611e0c6000830184611de8565b92915050565b611e1b81611b4c565b8114611e2657600080fd5b50565b600081359050611e3881611e12565b92915050565b60008060408385031215611e5557611e54611abd565b5b6000611e6385828601611d13565b9250506020611e7485828601611e29565b9150509250929050565b600080fd5b600080fd5b7f4e487b7100000000000000000000000000000000000000000000000000000000600052604160045260246000fd5b611ec082611bd1565b810181811067ffffffffffffffff82111715611edf57611ede611e88565b5b80604052505050565b6000611ef2611ab3565b9050611efe8282611eb7565b919050565b600067ffffffffffffffff821115611f1e57611f1d611e88565b5b611f2782611bd1565b9050602081019050919050565b82818337600083830152505050565b6000611f56611f5184611f03565b611ee8565b905082815260208101848484011115611f7257611f71611e83565b5b611f7d848285611f34565b509392505050565b600082601f830112611f9a57611f99611e7e565b5b8135611faa848260208601611f43565b91505092915050565b60008060008060808587031215611fcd57611fcc611abd565b5b6000611fdb87828801611d13565b9450506020611fec87828801611d13565b9350506040611ffd87828801611c5e565b925050606085013567ffffffffffffffff81111561201e5761201d611ac2565b5b61202a87828801611f85565b91505092959194509250565b600067ffffffffffffffff82111561205157612050611e88565b5b61205a82611bd1565b9050602081019050919050565b600061207a61207584612036565b611ee8565b90508281526020810184848401111561209657612095611e83565b5b6120a1848285611f34565b509392505050565b600082601f8301126120be576120bd611e7e565b5b81356120ce848260208601612067565b91505092915050565b6000806000606084860312156120f0576120ef611abd565b5b60006120fe86828701611d13565b935050602061210f86828701611c5e565b925050604084013567ffffffffffffffff8111156121305761212f611ac2565b5b61213c868287016120a9565b9150509250925092565b6000806040838503121561215d5761215c611abd565b5b600061216b85828601611d13565b925050602061217c85828601611d13565b9150509250929050565b7f4e487b7100000000000000000000000000000000000000000000000000000000600052602260045260246000fd5b600060028204905060018216806121cd57607f821691505b602082108114156121e1576121e0612186565b5b50919050565b7f4552433732313a20617070726f76616c20746f2063757272656e74206f776e6560008201527f7200000000000000000000000000000000000000000000000000000000000000602082015250565b6000612243602183611b8d565b915061224e826121e7565b604082019050919050565b6000602082019050818103600083015261227281612236565b9050919050565b7f4552433732313a20617070726f76652063616c6c6572206973206e6f7420746f60008201527f6b656e206f776e6572206e6f7220617070726f76656420666f7220616c6c0000602082015250565b60006122d5603e83611b8d565b91506122e082612279565b604082019050919050565b60006020820190508181036000830152612304816122c8565b9050919050565b7f4552433732313a2063616c6c6572206973206e6f7420746f6b656e206f776e6560008201527f72206e6f7220617070726f766564000000000000000000000000000000000000602082015250565b6000612367602e83611b8d565b91506123728261230b565b604082019050919050565b600060208201905081810360008301526123968161235a565b9050919050565b7f4552433732313a20696e76616c696420746f6b656e2049440000000000000000600082015250565b60006123d3601883611b8d565b91506123de8261239d565b602082019050919050565b60006020820190508181036000830152612402816123c6565b9050919050565b7f4552433732313a2061646472657373207a65726f206973206e6f74206120766160008201527f6c6964206f776e65720000000000000000000000000000000000000000000000602082015250565b6000612465602983611b8d565b915061247082612409565b604082019050919050565b6000602082019050818103600083015261249481612458565b9050919050565b7f4f776e61626c653a206e6577206f776e657220697320746865207a65726f206160008201527f6464726573730000000000000000000000000000000000000000000000000000602082015250565b60006124f7602683611b8d565b91506125028261249b565b604082019050919050565b60006020820190508181036000830152612526816124ea565b9050919050565b7f4552433732313a207472616e736665722066726f6d20696e636f72726563742060008201527f6f776e6572000000000000000000000000000000000000000000000000000000602082015250565b6000612589602583611b8d565b91506125948261252d565b604082019050919050565b600060208201905081810360008301526125b88161257c565b9050919050565b7f4552433732313a207472616e7366657220746f20746865207a65726f2061646460008201527f7265737300000000000000000000000000000000000000000000000000000000602082015250565b600061261b602483611b8d565b9150612626826125bf565b604082019050919050565b6000602082019050818103600083015261264a8161260e565b9050919050565b7f4e487b7100000000000000000000000000000000000000000000000000000000600052601160045260246000fd5b600061268b82611c3d565b915061269683611c3d565b9250828210156126a9576126a8612651565b5b828203905092915050565b60006126bf82611c3d565b91506126ca83611c3d565b9250827fffffffffffffffffffffffffffffffffffffffffffffffffffffffffffffffff038211156126ff576126fe612651565b5b828201905092915050565b7f4f776e61626c653a2063616c6c6572206973206e6f7420746865206f776e6572600082015250565b6000612740602083611b8d565b915061274b8261270a565b602082019050919050565b6000602082019050818103600083015261276f81612733565b9050919050565b7f4552433732313a20617070726f766520746f2063616c6c657200000000000000600082015250565b60006127ac601983611b8d565b91506127b782612776565b602082019050919050565b600060208201905081810360008301526127db8161279f565b9050919050565b7f4552433732313a207472616e7366657220746f206e6f6e20455243373231526560008201527f63656976657220696d706c656d656e7465720000000000000000000000000000602082015250565b600061283e603283611b8d565b9150612849826127e2565b604082019050919050565b6000602082019050818103600083015261286d81612831565b9050919050565b600081905092915050565b600061288a82611b82565b6128948185612874565b93506128a4818560208601611b9e565b80840191505092915050565b60006128bc828561287f565b91506128c8828461287f565b91508190509392505050565b7f45524337323155524953746f726167653a2055524920736574206f66206e6f6e60008201527f6578697374656e7420746f6b656e000000000000000000000000000000000000602082015250565b6000612930602e83611b8d565b915061293b826128d4565b604082019050919050565b6000602082019050818103600083015261295f81612923565b9050919050565b600081519050919050565b600082825260208201905092915050565b600061298d82612966565b6129978185612971565b93506129a7818560208601611b9e565b6129b081611bd1565b840191505092915050565b60006080820190506129d06000830187611cd2565b6129dd6020830186611cd2565b6129ea6040830185611de8565b81810360608301526129fc8184612982565b905095945050505050565b600081519050612a1681611af3565b92915050565b600060208284031215612a3257612a31611abd565b5b6000612a4084828501612a07565b91505092915050565b6000612a5482611c3d565b91507fffffffffffffffffffffffffffffffffffffffffffffffffffffffffffffffff821415612a8757612a86612651565b5b600182019050919050565b7f4e487b7100000000000000000000000000000000000000000000000000000000600052601260045260246000fd5b6000612acc82611c3d565b9150612ad783611c3d565b925082612ae757612ae6612a92565b5b828204905092915050565b6000612afd82611c3d565b9150612b0883611c3d565b925082612b1857612b17612a92565b5b828206905092915050565b7f4e487b7100000000000000000000000000000000000000000000000000000000600052603260045260246000fd5b7f4552433732313a206d696e7420746f20746865207a65726f2061646472657373600082015250565b6000612b88602083611b8d565b9150612b9382612b52565b602082019050919050565b60006020820190508181036000830152612bb781612b7b565b9050919050565b7f4552433732313a20746f6b656e20616c7265616479206d696e74656400000000600082015250565b6000612bf4601c83611b8d565b9150612bff82612bbe565b602082019050919050565b60006020820190508181036000830152612c2381612be7565b905091905056fea2646970667358221220d31fff20cceb08dcf10d7f4727a91924353b2b69cb7688e1fcabe236841cb8b264736f6c63430008090033",
  "linkReferences": {},
  "deployedLinkReferences": {}
}